S0130000536B65746368426F6172642E73726563C7
S113000064C100007FC100007DC100007BC100000D
S113001079C1000077C1000075C1000073C1000000
S113002071C100006FC100006DC100006BC1000010
S113003069C100002BC2000065C1000063C100005B
S113004061C100005FC100005DC100005BC1000030
S113005059C1000057C1000055C1000053C1000040
S113006051C100004FC100004DC100004BC1000050
S113007049C1000047C1000045C1000043C1000060
S113008041C100003FC100003DC1000035033803F9
S11300903B03520368033E037B038F0397039F03D1
S11300A0A703AF03B403C903F5030F042F044104EA
S11300B0A304A3044C04570462046D047804B40438
S11300C0BE04C104CC04CF04D204D504D804DB0498
S11300D0DE04E304F704020511054005B905B9057A
S11300E04B055B056A0579058805000000000000E2
S11300F0005F00000007000700147F147F14242A07
S11301007F2A1223130864623649552250000503DE
S11301100000001C2241000041221C0014083E087B
S11301201408083E080800503000000808080808B1
S1130130006060000020100804023E5149453E0062
S1130140427F400042615149462141454B311814D8
S1130150127F1027454545393C4A49493001710908
S113016005033649494936064949291E00363600F1
S1130170000056360000081422410014141414140C
S113018000412214080201510906324979413E7E98
S11301901111117E7F494949363E414141227F4137
S11301A041221C7F494949417F090909013E4149CE
S11301B0497A7F0808087F00417F41002040413F81
S11301C0017F081422417F404040407F020C027F9F
S11301D07F0408107F3E4141413E7F090909063EE4
S11301E04151215E7F091929464649494931010196
S11301F07F01013F4040403F1F2040201F3F4038C7
S1130200403F6314081463070870080761514945A7
S113021043007F41410002040810200041417F0057
S11302200402010204404040404000010204002056
S1130230545454787F48444438384444442038441F
S113024044487F3854545418087E0901020C525211
S1130250523E7F0804047800447D40002040443D21
S1130260007F1028440000417F40007C041804787B
S11302707C0804047838444444387C141414080872
S11302801414187C7C080404084854545420043F73
S11302904440203C4040207C1C2040201C3C4030FA
S11302A0403C44281028440C5050503C4464544C66
S11302B044000836410000007F0000004136080079
S11302C01008081008000000000011241FBECFEF22
S11302D0D0E4DEBFCDBF11E0A0E0B1E0E4EAF2E19A
S11302E000E00BBF02C007900D92A639B107D9F701
S11302F023E0A6E9B1E001C01D92A13DB207E1F7F8
S113030039D4CEC77DCEEAE7F0E08081816880836E
S113031080E480937C0008958770806480937C00DF
S1130320EAE7F0E0808180648083808184FFFDCFF0
S1130330EAE7F0E080818061808380917800909189
S113034079000895CF93DF93EC018091C50181304A
S113035069F580E0E1DF9093CD038093CC0320978F
S113036011F0209719F5803921E0920750F480911B
S11303700201882399F0815080930201C0E0D0E00B
S113038015C08D3B924068F0809102018F3260F479
S11303908F5F80930201C0E0D0E008C0C0E0D0E0ED
S11303A005C0C0E0D0E002C0C0E0D0E0CE01DF91E3
S11303B0CF910895CF93DF93EC018091C5018130F3
S11303C061F5AADF9093C9038093C803209711F0C5
S11303D0209719F5803921E0920750F480910301A8
S11303E0833598F48F5F80930301C0E0D0E015C09B
S11303F08D3B924068F080910301882361F0815025
S113040080930301C0E0D0E008C0C0E0D0E005C0A4
S1130410C0E0D0E002C0C0E0D0E0CE01DF91CF91D7
S1130420089560930C0170930D0180930E019093D5
S11304300F016093C9017093CA018093CB0190931B
S1130440CC0108958BE0809381008DE790E0909338
S113045089008093880082E080936F001092850069
S11304601092840080910C0190910D01A0910E01D5
S1130470B0910F018093C9019093CA01A093CB015D
S1130480B093CC018FB780688FBF08951F920F92ED
S11304900FB60F9211248F939F93AF93BF938091C4
S11304A0C9019091CA01A091CB01B091CC010197EF
S11304B0A109B1098093C9019093CA01A093CB010A
S11304C0B093CC01892B8A2B8B2B99F481E08093F8
S11304D0CD0180910C0190910D01A0910E01B0917C
S11304E00F018093C9019093CA01A093CB01B093EB
S11304F0CC01BF91AF919F918F910F900FBE0F9040
S11305001F901895181619065CF0089500002150E4
S11305103109E1F74F5F5F4F8417950719F4089588
S113052040E050E027E033E0F1CF5E9888B95F9A6D
S113053000005F9882E090E0E5CF089581E0F5CF78
S11305400895813118F48158F0CF08958155EDCF85
S1130550089584E690E0D6DF88E3E7DF86E0E5DF10
S11305608FE0E3DF81E0E1DF8AE090E0CBCF089524
S11305705E9A88B95F9A00005F9881E090E0C2CFEC
S113058008950F931F93CF93DF93182FEB01D6DFBA
S11305908881882351F001E0010F812FD2DF8991F6
S11305A0E7DF102F88818111F6CFDF91CF911F9162
S11305B00F9108950F931F93CF93DF938B0188308E
S11305C068F4880F880F880F805CAFDFE801085F4C
S11305D01F4F8991CDDFC017D107D9F780E8A5DF78
S11305E0DF91CF911F910F91089580E89EDF80E203
S11305F0BFDF86E89ADF80E2BBDF8CE896DF80E22B
S1130600B7DF82EC92DF80E2B3DF89EC8EDF80E239
S1130610AFCF089580E889DF80E2AADF83E885DF31
S113062080E2A6DF86E881DF80E2A2DF89E87DDF61
S113063080E29EDF80EC79DF80E29ACF0895CF9349
S1130640DF93EC018091C801813009F07CC182E024
S113065063DE9093D0038093CF03CD30D10508F0AF
S113066090C0FE01EA5BFF4FFCC5039B4CC191C0E7
S1130670039B4CC1BAC0039B4CC1D1C0039B63C153
S11306808091CA03882309F4B0C0813009F4C7C03B
S1130690823009F4E4C0833009F4F3C0843009F0F3
S11306A052C177C0049911C01092C7011092C601BB
S11306B01092C50181E08093C80140DF68E171E0D8
S11306C081E05FDFC6E0D0E03EC1039B25C1C7C027
S11306D004990EC033DF6EE271E081E052DF1092C4
S11306E0C80181E08093C70188EB9BE00BDF51C018
S11306F0039B15C1C6C0039B26C18091CB038730E1
S113070009F4D5C0883009F4DDC0893009F4E5C0A6
S11307108A3009F4EDC08B3009F015C1BDC00499CD
S113072003C081E0A3D4B8C0039BFCC0B5C0049946
S113073003C082E09BD4BBC0039BF7C0B8C004993C
S113074003C083E093D4BEC0039BF2C0BBC0049932
S113075003C084E08BD4C1C0039BEDC0BEC0049B26
S1130760EDC0039BEEC0C4C0049BEDC0E7DE69E3AB
S113077071E081E006DF1092C70181E08093C80137
S113078008C0CC30D10508F0DEC0FE01ED5AFF4FA1
S113079068C581E08093C6018093C5011092CA03A5
S11307A04091970160910001809101013DD36091D6
S11307B002018091030163D38093970141E060912A
S11307C002018091030130D33AD4809103018093D4
S11307D00101809102018093000107DF80E8A5DE1A
S11307E080E0C6DEC0E0D0E0AEC081E08093CA0302
S11307F041E0609102018091030116D320D4F5DE1B
S113080086E893DE80E0B4DE8091030180930101E9
S11308108091020180930001C1E0D0E094C082E0A5
S11308208093CA03E2DE8CE880DE80E0A1DE40E053
S11308306091000180910101F7D241E060910201D1
S113084080910301F1D2FBD38091030180930101D4
S11308508091020180930001C2E0D0E074C0109244
S1130860C6018BE08093CB031092C50183E0809393
S1130870CA03BBDE82EC59DE80E07ADEC3E0D0E05E
S113088062C084E08093CA03B0DE89EC4EDE80E06F
S11308906FDEC4E0D0E057C087E08093CB03BADEBC
S11308A080E843DE80E064DEC7E0D0E04CC088E04E
S11308B08093CB03AFDE83E838DE80E059DEC8E006
S11308C0D0E041C089E08093CB03A4DE86E82DDE2E
S11308D080E04EDEC9E0D0E036C08AE08093CB03EE
S11308E099DE89E822DE80E043DECAE0D0E02BC056
S11308F08BE08093CB038EDE80EC17DE80E038DE65
S1130900CBE0D0E020C0C5E0D0E01DC0C5E0D0E021
S11309101AC0C5E0D0E017C0C5E0D0E014C0C5E0FF
S1130920D0E011C0C6E0D0E00EC0C6E0D0E00BC0FD
S1130930C6E0D0E008C0C6E0D0E005C0CCE0D0E01E
S113094002C0C6E0D0E0CE01DF91CF91089520919E
S1130950C701213009F00DC18C30910508F04AC05F
S1130960FC01E15AFF4F7DC431E020E08091960103
S1130970823008F430E0832F922F3CC0039BE2C006
S113098050C0049906C0DADD68E571E081E0F9DD64
S113099082C0039BDAC074C0039BEBC042C0039BBC
S11309A0E8C06EC0039BD4C076C0039BD4C083C090
S11309B0039BD4C08FC0039BD4C09BC0049BD4C0F2
S11309C0039BD5C0A5C0039BD4C02091CE03253082
S11309D009F471C0263009F47DC0273009F489C0B8
S11309E0283009F495C0293009F0C3C054C0049BD1
S11309F0C0C008C08A30910508F0BBC0FC01E559AD
S1130A00FF4F2FC49BDD6EE671E081E0BADDFBD1C0
S1130A1016D3809196018F5F8093960180E090E0D9
S1130A2008951092C8011092C6011092C501109247
S1130A30C4016FE08AE0FED261E089E891E0E8D287
S1130A40FED285EC72DD80E293DD84E86EDD80E029
S1130A508FDD10929601049966C081E08093C801ED
S1130A608093C6018093C5011092C7011092C401FE
S1130A70CAD169E371E081E084DD80E090E008950B
S1130A8084E853DD80E274DD85EC4FDD80E070DDC9
S1130A9082E090E0089585E08093CE03BBDD80E89A
S1130AA044DD80E065DD049941C081E043D3C7D2D1
S1130AB085E090E0089586E08093CE03ABDD83E883
S1130AC034DD80E055DD049934C082E033D386E020
S1130AD090E0089587E08093CE039CDD86E825DDD1
S1130AE080E046DD049928C083E024D387E090E0C9
S1130AF0089588E08093CE038DDD89E816DD80E0DB
S1130B0037DD04991CC084E015D388E090E0089593
S1130B1089E08093CE037EDD80EC07DD80E028DD74
S1130B2089E090E0089581E090E0089585E090E008
S1130B30089586E090E0089587E090E0089588E0C5
S1130B4090E0089584E090E0089583E090E00895B3
S1130B508AE090E008958AE090E008958AE090E0C9
S1130B6008958AE090E008958BE090E008958AE08B
S1130B7090E00895CF93DF93CDB7DEB728970FB6F3
S1130B80F894DEBF0FBECDBF11B88FEF82B984B920
S1130B9015B887B918B88AB91BB8E9EBF1E0108227
S1130BA086E990E0A0E0B0E081839283A383B483DC
S1130BB085839683A783B08727EA34E03287218729
S1130BC0EEEAF1E0108248EC50E060E070E041832E
S1130BD0528363837483458356836783708722EAD1
S1130BE031E032872187E3EAF1E0108241835283C6
S1130BF06383748345835683678370872AED31E06A
S1130C0032872187E8E9F1E0108281839283A3830C
S1130C10B48385839683A783B0878FE193E092871B
S1130C20818788E0E0E1F1E0DE01119601900D9208
S1130C308A95E1F78EDCBE016F5F7F4F80E0BADCFE
S1130C408CE073DCAAD0DFD0FAD15DDBE091040143
S1130C50F0910501418052806380748006E011E0C8
S1130C600F2EFCE0AF2EF1E0BF2EF02DD801ED9158
S1130C70FD918D01542D452D362D272D4180528017
S1130C806380748002C02B013C01652F742F832F75
S1130C90922FA3019201C3D2542D452D362D272D19
S1130CA0611571058105910571F70A151B05F1F6AA
S1130CB0C301B201B6DBC6DB81E08093C7011092A9
S1130CC0C8011092C6011092C5011092C40104E03B
S1130CD011E06801F801E080F180D70115964D918B
S1130CE05D916D917C91189711968D919D910D90C8
S1130CF0BC91A02D481759076A077B0791F4F701A7
S1130D0080810184F285E02D082E000C990B099551
S1130D10D7018C93D801ED91FC911582168217822C
S1130D201086D601ED91FC910E5F1F4F858196814F
S1130D30A781B085840D951DA61DB71D8583968357
S1130D40A783B0870A151B0521F68091CD0188235E
S1130D50E1F31092CD01BBCF2A98662311F0289AB3
S1130D6015C0289813C0AC01022E02C055954795B2
S1130D700A94E2F740FF02C02D9A01C02D982F9AE1
S1130D802F982150310978F72A9A089527E030E006
S1130D9090E0E9CF60E0E0CF0895CF93DF93229A0B
S1130DA0249A209A259A279A2C9A2A9A83EC99E0D5
S1130DB00197F1F700C000002C988BE594E40197AB
S1130DC0F1F700C000002C9A2A9881E2E3DF83E166
S1130DD0E1DF86E0DFDF82ECDDDF80E2DBDF89E07C
S1130DE0D9DF80E8D7DF80E4D5DFC8EFD1E061E068
S1130DF080E0B2DF2197D9F788E0CCDF8CE0CADF4E
S1130E00DF91CF91089580E8C5DF80E4C3DF1092BD
S1130E10C6031092C703EEECF1E086EC93E0119266
S1130E20E817F907E1F70895262F269526952695C4
S1130E3090E034E5239F800D911D1124442379F023
S1130E40FC01E253FE4F677081E090E002C0880F1E
S1130E50991F6A95E2F79081892B80830895FC019C
S1130E60E253FE4F677081E090E002C0880F991F43
S1130E706A95E2F780959081892380830895262FCF
S1130E8026952695269594E5299F900111242253B1
S1130E903E4FF901E80FF11D408150E0677021E0F9
S1130EA030E002C0220F331F6A95E2F781E090E040
S1130EB04217530711F080E090E008955F926F921B
S1130EC07F928F929F92AF92BF92CF92DF92EF92D6
S1130ED0FF920F931F93CF93DF93562E262F30E06C
S1130EE04901880C991C880C991C820E931E1814B5
S1130EF019040CF059C08901000F111F000F111FB4
S1130F00000F111F021B130B612CA82EB12CC5015D
S1130F1080975C01AA0CBB1CAA0CBB1CA80EB91EB2
S1130F200F2EF7ECCF2EF3E0DF2EF02D0F2EF6EC84
S1130F30EF2EF3E0FF2EF02D2AC0FE01249130E0C5
S1130F40872D652D60D102C0359527958A95E2F7E6
S1130F5020FF09C0F6016081670DF701808141E03F
S1130F60860D62DF08C0F6016081670DF70180819C
S1130F7040E0860D59DF7394872D90E08017910728
S1130F80E4F26394862D90E0881599056CF41016AC
S1130F901106BCF7862D652D36D1E501C80FD11D8C
S1130FA0C651DF4F712CC9CF8091C60391E0980FD1
S1130FB0852D880F880F850D890F843518F480934B
S1130FC0C6030EC01092C603E7ECF3E0808191E003
S1130FD0980F852D880F880F880F8519890F8083B6
S1130FE08091C703803320F01092C6031092C70388
S1130FF0DF91CF911F910F91FF90EF90DF90CF90F1
S1131000BF90AF909F908F907F906F905F90089566
S11310101F93CF93DF93EC018881882339F0162F37
S11310202196612F4BDF89918111FBCFDF91CF9105
S11310301F9108958093C6036093C70308950F9387
S11310401F93CF93DF9380E8A5DE80E4A3DECEEC8C
S1131050D1E006EC13E061E089917EDEC017D10790
S1131060D1F7DF91CF911F910F910895EF92FF92E5
S11310700F931F93CF93DF938130A1F40EEC11E013
S1131080C0EDDBE00F2EF6ECEF2EF3E0FF2EF02D9B
S1131090F80161918F01CE01F5D022960E151F053E
S11310A0B9F741C08230A1F40EEC11E0C0EED7E0F4
S11310B00F2EF6ECEF2EF3E0FF2EF02DF8016191E8
S11310C08F01CE01DFD022960E151F05B9F72BC074
S11310D08330A1F40EEC11E0C0EFD3E00F2EF6EC58
S11310E0EF2EF3E0FF2EF02DF80161918F01CE0178
S11310F0C9D022960E151F05B9F715C0843099F48E
S11311000EEC11E0C0E0D0E00F2EF6ECEF2EF3E091
S1131110FF2EF02DF80161918F01CE01B3D02296FC
S11311200E151F05B9F7DF91CF911F910F91FF9015
S1131130EF900895EF92FF920F931F93CF93DF9355
S1131140C82F80E827DE80E425DEC130A1F400ED5D
S11311501BE0CEECD1E00F2EF6ECEF2EF3E0FF2EE9
S1131160F02DC80187D089936ADF0E5F1F4FCE151B
S1131170DF05B9F741C0C230A1F400EE17E0CEECB0
S1131180D1E00F2EF6ECEF2EF3E0FF2EF02DC80188
S113119071D0899354DF0E5F1F4FEC16FD06B9F72B
S11311A02BC0C330A1F400EF13E0CEECD1E00F2E3E
S11311B0F6ECEF2EF3E0FF2EF02DC8015BD08993FF
S11311C03EDF0E5F1F4FCE15DF05B9F715C0C430E3
S11311D099F400E010E0CEECD1E00F2EF6ECEF2E07
S11311E0F3E0FF2EF02DC80145D0899328DF0E5F70
S11311F01F4FCE15DF05B9F7DF91CF911F910F91E6
S1131200FF90EF900895991B79E004C0991F9617F9
S113121008F0961B881F7A95C9F780950895A1E276
S11312201A2EAA1BBB1BFD010DC0AA1FBB1FEE1F5C
S1131230FF1FA217B307E407F50720F0A21BB30BA7
S1131240E40BF50B661F771F881F991F1A9469F723
S113125060957095809590959B01AC01BD01CF017F
S11312600895EE0FFF1F0024001C0BBE0790F6919B
S1131270E02D0994F999FECF92BD81BDF89A992782
S113128080B50895262FF999FECF1FBA92BD81BD6E
S113129020BD0FB6F894FA9AF99A0FBE01960895F4
S10712A0F894FFCFEC
S11312A4182A182AB901AE01A3019801010000000B
S11312B4080C0E0F0E0C0800205331205332205317
S11312C43320533420202020204261636B0045786E
S11312D46974696E672E2E2E00204D6F766520206A
S11312E444726177202044656C2020205361766524
S11312F42020204578697400205331205332205330
S11313043320533420202020204578697400202081
S1131314202020536B657463682020202020202023
S1131324202020205669657700536B6574636842F6
S10913346F617264000009
S9030000FC
